:020000040800F2
:10000000280B00209D010008753400086B2F0008A4
:100010004D3400080D090008B94000080000000038
:10002000000000000000000000000000C1380008CF
:10003000C109000800000000B1370008C3380008FB
:10004000B7010008B7010008B7010008B7010008B0
:10005000B7010008B7010008B7010008B7010008A0
:10006000B7010008B7010008B7010008B701000890
:10007000B7010008B7010008B7010008B701000880
:10008000B7010008B7010008B7010008B701000870
:10009000B7010008B7010008B7010008B701000860
:1000A000B701000869390008B7010008B701000866
:1000B000C9390008B7010008B7010008B7010008F6
:1000C000B7010008B7010008B7010008B701000830
:1000D000B70100088940000895400008A1400008C9
:1000E000B7010008B7010008B7010008B701000810
:1000F000B7010008B7010008B7010008B701000800
:10010000B7010008B7010008B7010008B7010008EF
:10011000D13D0008DD3D0008B7010008B701000827
:1001200011090008B7010008B7010008B70100086D
:10013000B7010008B7010008B7010008B7010008BF
:10014000B7010008B7010008B7010008B7010008AF
:10015000B7010008B7010008B7010008AD4000086A
:10016000B7010008B7010008B7010008B70100088F
:10017000B7010008B7010008B7010008000000003F
:10018000B7010008B7010008DFF80CD000F088FACA
:100190000048004769440008280B002006488047B3
:1001A00006480047FEE7FEE7FEE7FEE7FEE7FEE75C
:1001B000FEE7FEE7FEE7FEE759390008890100087F
:1001C0002DE9F05F0546002092469B46884606468C
:1001D000814640241BE0284641464746224600F01F
:1001E000E0F953465A46C01A914110D311461846B9
:1001F000224600F0C7F92D1A67EB01084F46224648
:100200000120002100F0BEF917EB00094E41201E2D
:10021000A4F10104DFDC484631462A464346BDE8E6
:10022000F09FD2B201E000F8012B491EFBD27047CB
:100230000022F6E710B513460A4604461946FFF7B2
:10024000F0FF204610BD2DE9FE4F804681EA0300F5
:10025000C00F0C46009021F0004123F00045B8EBA0
:100260000200A94105D24046214690461C460B4655
:10027000024623F00040104347D0270DC7F30A0081
:10028000C3F30A510290401A019040286BDAC3F37D
:10029000130040F4801B0098924620B10023D2EB5B
:1002A000030A63EB0B0B01985946C0F1400250461C
:1002B00000F068F906460D4650465946019A00F08E
:1002C00080F910EB08006141002487EA115284EAAA
:1002D000E7731A4340D0009A62B3019A012A4FEAA9
:1002E000075215DC001B61EB02014FF0004202EAED
:1002F0000752CDE90042001C41F5801132462B46E1
:1003000000F080F903B0BDE8F08F40462146F9E7E0
:10031000001B61EB0201001C41F5801300185B41DA
:100320002018A2F5001747EB030140EAD570B61973
:100330006D4111E06D084FEA360645EAC0754FEA97
:100340000752001B61EB0201001C41F580114908B6
:100350004FEA30000019514132462B4603B0BDE848
:10036000F04F00F040B90098012240000023D0EB8C
:10037000020263EBE073009821464FEAE074B8EBA9
:10038000000061EB0401E9E783F000435BE781F0E3
:10039000004158E72DE9FE4F81EA030404F00044D0
:1003A00021F0004100944FF0000B23F0004350EA8D
:1003B00001045ED052EA03045BD0C3F30A54C1F3D4
:1003C0000A552C44A4F2F3340194A0FB0254C1F367
:1003D000130141F48011C3F3130343F4801301FBB1
:1003E000024400FB034E840A970A44EA815447EA18
:1003F0008357A4FB076802958D0A05FB07854FEA22
:10040000932C04FB0C542705029D4FEA065847EA3B
:100410001637B5EB08056EEB070C870E920E47EA10
:10042000811742EA8312A7FB0201B6EB0B0164EBD2
:1004300000042B0D43EA0C335E1844EB1C50DA46E3
:100440005146E7FB0201C5F313044FEA0B3343EABD
:1004500014534FEA0432019C43EA0603A4F10C044E
:100460000294009CCDE900B400F0CCF803B0BDE8E4
:10047000F08F00200146F9E70EB5C10F80EAE07069
:100480000844CA07002140F233438DE80E000A46B3
:100490000B4600F0B7F803B000BD0EB540F2334193
:1004A00002910021CDE900110A460B4600F0AAF89E
:1004B00003B000BD70B5C1F30A5201F0004500243D
:1004C000C1F3130140F2FF3341F480119A4201DA83
:1004D000002070BD40F233439A42A2F2334203DC63
:1004E000524200F05EF800E090402C43F1D04042D0
:1004F00070BDC1F30A5210B5C1F3130140F2FF33CE
:1005000041F480119A4201DA002010BD40F23343D9
:100510009A42A2F2334203DC524200F042F810BD8C
:10052000904010BD30B5041E71F1000404DB4FF0A3
:100530000044404264EB0101141E73F1000405DB2A
:100540001C464FF00043524263EB04038B4208BF4A
:10055000824230BD30B5041E71F1000404DB4FF05F
:100560000044404264EB0101141E73F1000405DBFA
:100570001C464FF00043524263EB0403994208BF0C
:10058000904230BD202A04DB203A00FA02F100201C
:1005900070479140C2F1200320FA03F319439040C1
:1005A0007047202A04DB203A21FA02F0002170472C
:1005B00021FA02F3D040C2F12002914008431946CB
:1005C0007047202A06DBCB17203A41FA02F043EAB3
:1005D000E07306E041FA02F3D040C2F120029140FC
:1005E00008431946704710B5141E73F1000408DA69
:1005F000401C41F1000192185B411A4301D120F0E7
:10060000010010BD2DE9F04D92469B4611B1B1FAA3
:1006100081F202E0B0FA80F220329046FFF7B2FF9A
:1006200004460F4640EA0A0041EA0B0153465A4687
:10063000084313D0114653EA010019D0C8F1400213
:100640005046FFF7AEFF05460E4650465946424615
:10065000FFF798FF084305D0012004E02046394603
:10066000BDE8F08D0020054346EAE0762C43374391
:100670000A986305E40AA0EB08000022FD0A44EA98
:1006800047540A3002D500200146E9E70105101958
:100690006941DDE9084500196941BDE8F04DA2E76F
:1006A000064C074D06E0E06840F0010394E80700BF
:1006B00098471034AC42F6D3FFF76AFDF8510008B2
:1006C0001852000810B50146806B026C12F0500FF2
:1006D00005D0026CD20626D500F01CFA10BD016CC4
:1006E00041F40071016401688A6812F0405F17D11B
:1006F000027EAAB9CA6A12F4700F02D08A68520543
:100700000ED44A6822F020024A60016C21F4807104
:100710000164016CC90403D4016C41F0010101645E
:1007200000F0F6F910BD806BC26CBDE810400846C1
:10073000104710B5806B40210164416C41F0040109
:10074000416400F0E7F910BD10B5806B00F0E1F9ED
:1007500010BD0000464910B54A6822F440324A6094
:100760004A6843681A434A6001684A6822F4807202
:100770004A6001684A68036942EA03224A600168E4
:100780004A6822F040724A6001684A6883681A43E6
:100790004A6001688A6822F400628A6001688A6897
:1007A000C3681A438A60816A6FF07062D14201683F
:1007B0008A6822F070628A6001688A680CD0836A55
:1007C0001A438A6001688A6822F040528A60016890
:1007D0008A68C36A1A4301E022F040528A600168C5
:1007E0008A6822F002028A6001688A68037E42EA0F
:1007F00043028A6090F82010002901684A680FD0EF
:1008000042F400624A6001684A6822F460424A6029
:1008100001684A68174C436A04EB43331A4301E00A
:1008200022F400624A600168CA6A22F47002CA6255
:100830000168CA6A838B104C04EB03531A43CA62E3
:1008400001688A6822F400728A6001688A6890F8F8
:10085000303042EA43228A6001688A6822F480626A
:100860008A6001688A68406942EA8020886010BD19
:100870000023014000E0FFFF0000F0FF70B5214CB5
:1008800000252149E580A58065802580042201F1AD
:10089000300000F0C7F9A11E1B480D700A782588AA
:1008A00002EB4203521C30F8136000EB4303354463
:1008B000258065885E88D2B235446580A5889B888E
:1008C000082A2B44A3800A70E8D320880323C20897
:1008D000228060880B21C0086080A088C008A080AA
:1008E000022002F0BFFE032362880B21184602F0AB
:1008F000B9FEA288BDE8704003230B21042002F05A
:10090000B1BE000042000020A0000020FEE7000071
:10091000014800F08DBA000018010020016818237A
:10092000CAB2103AB2FBF3F2054B6FF30901032A86
:100930009B5CC36500D9091D8165084670470000AE
:10094000E84B000810B5014600208B698A6A4FF019
:10095000C07453B1B3F5005F15D072B1012A0CD049
:10096000022A0AD0032A09D104E01AB1012A06D0CA
:10097000022A03D1C96AC90100D5012010BDC96A84
:10098000A142FAD010BD002AF7D0012AF2D0022AE3
:10099000F3D0032AF3D010BD30B50468256825F4E0
:1009A00080252560046863608368402B036803D05A
:1009B00099600068C26030BD9A600068C16030BD57
:1009C0007047FEE778B50024009490F83C20012A97
:1009D00019D0012280F83C200A6807230568092AFB
:1009E00013D9EE680A3A02EB420293409E43EE604E
:1009F0000B788A680A3B03EB43039A400368DD687F
:100A00002A43DA6010E0022078BD2E6902EB420230
:100A100093409E432E610B788A6803EB43039A4010
:100A200003681D692A431A614A681F23072A13D2E3
:100A300005686E6B521E02EB820293409E436E630A
:100A40000B790A885B1E92B203EB83039A4003681A
:100A50005D6B2A435A6327E005680D2A12D22E6B7C
:100A6000D21F02EB820293409E432E630B790A88C9
:100A7000DB1F92B203EB83039A4003681D6B2A438A
:100A80001A6311E0EE6A0D3A02EB820293409E4334
:100A9000EE620B790A880D3B92B203EB83039A4016
:100AA0000368DD6A2A43DA62164B0568144A9D42E0
:100AB00006D10D68122D03D1556845F480055560A7
:100AC00005689D4218D10B68102B01D0112B13D152
:100AD000536843F400035360096810290CD10A4994
:100AE0000A4A0968B1FBF2F101EB8101490000E01B
:100AF000491E00910029FBD180F83C40002078BDC0
:100B000000230140002001407800002040420F00F7
:100B100070477047704770B504004FF0000503D070
:100B2000206C002610B107E0012070BD204600F0C7
:100B30001DF8666484F83C60206CC00610D4206CFC
:100B400020F4885040F0020020642046FFF702FEA7
:100B50006664206C20F0020040F00100206400E098
:100B6000012584F83C60284670BD000070B586B051
:100B7000064614216846FFF75BFB2449306888422B
:100B800042D123480025016841F48071016000686A
:100B90001F4900F4807014390590086840F0040083
:100BA0000860086800F004000590086840F0010043
:100BB00008600868032400F00100059008208DE813
:100BC00031006946134800F0B7FAA0208DE83100E3
:100BD0006946114800F0B0FA114C1048C4E900050C
:100BE0000015A560C4E90350400060618000A06169
:100BF0004011C4E907052046656200F0E9F908B133
:100C0000FFF7DFFEB463A66306B070BD00200140AD
:100C100044380240000802400000024010640240D4
:100C200018010020F8B5044600200E46009094F804
:100C30003C10012907D0012184F83C1021688B6801
:100C4000DB0702D011E00220F8BD8B6843F00103FE
:100C50008B604049404B0968B1FBF3F101EB410166
:100C600000E0491E00910029FBD121688B68DB055B
:100C700003D58B6823F480738B6021688B68DB0756
:100C80005DD0236C40F20165AB4343F48073236471
:100C90004968490505D5216C21F4005141F4805182
:100CA0002164216CC90404D5616C21F006016164E2
:100CB00000E0606484F83C00A16B2948274DC863BC
:100CC000A16B28480864A16B2748C86421686FF0AD
:100CD000220008602068416841F08061416020681E
:100CE000816841F4807181602168134632464C313D
:100CF000A06B00F0D7F968681C49C006206806D0D0
:100D0000884224D1816811F0405F13D01FE08842EF
:100D1000F8D0174A904203D1D1F80423D206F1D07B
:100D2000144A904213D1D1F8041301F01F01102985
:100D3000E8D30CE0816841F08041816007E0206CDD
:100D400040F010002064606C40F0010060640020FE
:100D5000F8BD00007800002040420F000023014051
:100D6000C5060008490700083307000800200140B5
:100D700000210140002201402DE9F0410446876D29
:100D800000F0DCFA064694F835000025022806D06B
:100D90008020606584F834500120BDE8F08120682F
:100DA000016821F0160101602068416921F080018D
:100DB0004161206C08B9A06C20B12068016821F065
:100DC000080101602068016821F0010101600CE068
:100DD00000F0B4FA801B052807D9202060650320A5
:100DE00084F8350084F83450D7E720680068C007DD
:100DF000EED194F85C103F208840B860012084F860
:100E0000350084F834500020C7E790F835100229E7
:100E100003D08021416501207047052180F83510FD
:100E20000068016821F001010160002070470000A6
:100E30002DE9F84304464FF00009CDF800906348CF
:100E40004FF41651A56D0068B0FBF1F72E6894F8C9
:100E50005C10082000FA01F131420FD021680A68C5
:100E600052070BD50A6822F004020A6094F85C105D
:100E70008840A860606D40F00100606594F85C10E7
:100E80004FF0010808FA01F0304208D021684969A2
:100E9000090604D5A860606D40F00200606594F812
:100EA0005C1004208840304208D021680968890716
:100EB00004D5A860606D40F00400606594F85C1093
:100EC00010208840304218D021680968090714D5DD
:100ED000A86020680168490304D50068000308D5AC
:100EE000A16C07E00168C90503D4016821F008017D
:100EF0000160216C09B12046884794F85C102020DD
:100F00008840304231D021680968C9062DD5A860D3
:100F100094F8350005282068016806D0490347D5B4
:100F2000006800031DD4616C1CE021F01601016013
:100F30002068416921F080014161206C08B9A06CF2
:100F400020B12068016821F00801016094F85C106C
:100F50003F208840A86084F8358084F83490216D63
:100F60001FE0E16B09B120468847606D00282BD057
:100F7000606DC00714D0052084F835002068016832
:100F800021F0010101600098401C0090B84203D894
:100F900020680068C007F6D184F8358084F8349062
:100FA000E16C002910D001B02046BDE8F0430847AD
:100FB0000168C905D5D4016821F01001016084F8E9
:100FC000358084F83490CCE7BDE8F88378000020C1
:100FD0002DE9F041044600F0B1F906465CB102206B
:100FE00084F83500002584F834502068016821F029
:100FF000010101600DE00120BDE8F08100F09EF9E3
:10100000801B052805D920206065032084F8350061
:10101000F2E720680068C007F0D122681168204814
:101020000140D4E901031843D4E90336334318439C
:1010300063691843A3691843E3691843236A184393
:101040000843616A042903D1D4E90B131943084307
:10105000106020684069666A20F0070130460E4340
:10106000012704280CD1A06A0643E06A40B120465B
:10107000FFF768FC20B14020606584F83570BAE75E
:10108000206846612046FFF749FC94F85C203F2128
:1010900091408160656584F835700020ACE7000000
:1010A0003F8010F02DE9F0410446866D90F8340041
:1010B000002501280DD0012084F8340094F8357003
:1010C0000020012F07D084F8340002252846BDE80F
:1010D000F0810220FBE7022784F835706065204626
:1010E000FFF75AFC94F85C103F208840B0602068FD
:1010F000016841F016010160206C20B12068016890
:1011000041F0080101602068016841F001010160BF
:10111000DCE7000070B5044600F010F90546601CDD
:1011200002D004480078044400F008F9401BA042B3
:10113000FAD370BD6C0000202DE9F84FDFF8BCA198
:101140000022012503264FF00F090AF1040BAAF132
:10115000040E00BF0B6805FA02F42340A34270D1CD
:101160000F7907F00307012F01D0022F16D18768EE
:101170004FEA420806FA08FC27EA0C07D1F80CC02F
:101180000CFA08FC4CEA070CC0F808C04768A743F3
:101190000C79C4F3001494403C4344600C79E4435C
:1011A000A4070AD0C4684FEA420C06FA0CF7BC4305
:1011B0008F6807FA0CF72743C7600C7904F0030423
:1011C000022C12D1D40800EB840CDCF82040570725
:1011D000FF0E09FA07F824EA0804D1F8108008FA8B
:1011E00007F848EA0408CCF8208004684FEA420C6B
:1011F00006FA0CF7BC430F7907F0030707FA0CF760
:10120000274307604C6814F4403F70D03C4C27687B
:1012100047F480472760246822F0030704F48044E1
:101220000094384C07EB040CDCF8084897074FEAA9
:10123000177809FA08F7BC43334FB84202D10027A8
:1012400024E054E0314FB84201D101271EE0304F75
:10125000B84201D1022719E02E4FB84201D103272D
:1012600014E02D4FB84201D104270FE02B4FB842B4
:1012700001D105270AE02A4FB84201D1062705E02F
:10128000284FB84201D1072700E0082707FA08F7DE
:101290002743CCF80878DAF800405746D1F804C064
:1012A0009C435FEACC2C00D51C433C60DBF800403B
:1012B0005F46D1F804C09C435FEA8C2C00D51C43E8
:1012C0003C60DEF800407746D1F804C09C435FEAFA
:1012D0008C3C00D51C433C60084F083F3C68D1F86B
:1012E00004C09C435FEACC3C00D51C433C60521CCC
:1012F000102AFFF42FAFBDE8F88F0000083C014032
:101300004438024000300140000002400004024026
:1013100000080240000C024000100240001402408D
:1013200000180240001C02400069084000D0012063
:1013300070470AB1816170470904FBE70148806882
:10134000704700006C000020024881680278114458
:10135000816070476C0000200B4810B5016841F4B3
:1013600000710160016841F480610160016841F42D
:1013700080710160032000F06FF80F2000F006F884
:1013800000F024F8002010BD003C024070B50D4D67
:1013900004464FF47A712878B1FBF0F00A490968E5
:1013A000B1FBF0F000F00CFB48B9102C07D2002282
:1013B0002146501E00F030F800206C6070BD012006
:1013C00070BD00006C000020780000200A4808B5BD
:1013D000016841F480410160006800F480400090A1
:1013E0000548001F016841F080510160006800F06D
:1013F0008050009008BD000044380240002809DBFE
:1014000000F01F02012191404009800000F1E0201E
:10141000C0F8001170470000F0B40E4B1B680C467A
:10142000C3F30223C3F10705042D00D90425191DB8
:10143000072901D2002300E0DB1E012606FA05F190
:10144000491E214099409E40761E16403143F0BC13
:1014500002F033BE0CED00E0064900F00702086818
:101460004FF6FF03184040EA0220034A1043086089
:10147000704700000CED00E00000FA052DE9F04790
:101480000E46050065D0DFF81481D8F80000F7B2E9
:1014900000F00700B04207D288F80070D8F80000CA
:1014A00000F00700B04254D128683D4C810712D5A6
:1014B000400703D5206840F4E050206028780007FA
:1014C00003D5206840F4604020602068A96820F0BF
:1014D000F000084320602878C0072DD030496868A4
:1014E0000839012812D0022813D0032811D0096826
:1014F000890700292DDA216821F0030101432160C9
:10150000FFF71CFF814641F2883A0EE00968890323
:10151000EFE709688901ECE7FFF710FFA0EB09018D
:10152000514502D90320BDE8F0872068696800F0C2
:101530000C00B0EB810FEFD1D8F80010404601F05D
:101540000701B14207D90770006800F00700B042F8
:1015500001D00120E7E72878400705D52068E96831
:1015600020F4E050084320602878000706D5206862
:10157000296920F4604040EAC100206000F038F89A
:101580002168084AC1F30311515CC840064908604C
:1015900006480068FFF7FAFE0020C4E7003C02405E
:1015A00008380240F04B000878000020700000204E
:1015B0000448054900680968044AC1F38221515C66
:1015C000C84070477800002008380240004C0008EE
:1015D0000448054900680968044AC1F34231515C76
:1015E000C84070477800002008380240004C0008CE
:1015F000154810B5006810F00C02144813D01449B7
:10160000042A0FD0082A0ED10F4C241F2268236809
:1016100002F03F025B0207D52068C0F38810A0FBF0
:10162000010106E0084610BD2168C1F38811A1FB45
:1016300000010023FEF7C4FD2168C1F30141491CEC
:101640004900B0FBF1F010BD083802400024F4005E
:1016500040787D012DE9F84F04006ED02078DFF846
:101660004C93C007A9F104054AD009F104000168B0
:10167000C1F38101012908D00068C0F3810002286C
:101680000AD1D9F80000400206D52868800337D572
:1016900060680028E1D033E06068B0F5803F10D08A
:1016A000B0F5A02F286810D020F48030286028687A
:1016B00020F4802028606068A8B1FFF73FFE06464E
:1016C0000DE0286840F48030F4E740F48020286082
:1016D000F7E700BFFFF732FE801B642873D8286845
:1016E0008003F7D50CE0FFF729FE064605E000BFB2
:1016F000FFF724FE801B6428F0D828688003F7D405
:101700002078DFF8AC8280074FF0000A3ED5A7486A
:10171000001D016811F00C0F08D00068C0F38100B3
:1017200002280BD1D9F80000400207D428688007AE
:1017300016D5E068012800D112E033E1E068B8B1C5
:101740000120C8F80000FFF7F9FD064605E000BFDC
:10175000FFF7F4FD801B0228C0D828688007F7D562
:101760002868216920F0F80040EAC10028600DE0F7
:10177000C8F800A0FFF7E2FD064604E0FFF7DEFD33
:10178000801B02281FD828688007F7D4207800071C
:1017900022D5864F87486169703771B10121016098
:1017A000FFF7CCFD064604E0FFF7C8FD801B0228CA
:1017B00009D838688007F7D50EE0C0F800A0FFF719
:1017C000BDFD064605E082E0FFF7B8FD801B02285C
:1017D0007DD838688007F7D42078400768D5DFF8CF
:1017E000CCB100270BF13C0BDBF80000C0000BD4A0
:1017F000DBF8001041F08051CBF80010DBF800005E
:10180000012700F0805000906B4E3068C00510D466
:10181000306840F480703060FFF790FD009005E084
:10182000FFF78CFD0099401A022850D83068C00597
:10183000F6D55E4EA0686C3601280FD005283068BA
:1018400010D020F001003060306820F004003060DB
:10185000A068B8B1FFF772FD00900FE0306840F06B
:101860000100F4E740F004003060F7E7FFF766FDA1
:101870000099411A41F28830814266D83068800769
:10188000F4D50EE0FFF75AFD009007E0FFF756FD94
:101890000099411A41F28830814256D83068800759
:1018A000F4D42FB1DBF8001021F08051CBF80010F8
:1018B000A069C8B33D49091D0968C1F38101022926
:1018C0004AD00228504607D0C8F8600000E03CE04B
:1018D000FFF734FD04463BE04746C8F86000FFF7D9
:1018E0002DFD064605E000BFFFF728FD801B0228FE
:1018F0002BD828688001F7D4D4E907010843A16AEE
:101900002E4A490802EB0141626A41EA821108430A
:1019100094F82C1040EA0161C9F8001001203866E3
:10192000FFF70CFD044606E03EE000BFFFF706FDB2
:10193000001B022809D828688001F7D534E000BFD1
:10194000FFF7FCFC001B022802D90320BDE8F88F3A
:1019500028688001F4D427E00128F7D0D9F80000E6
:10196000E26900F4800191421CD1226A00F03F013B
:10197000914217D147F6C071626A0140B1EB821FF4
:1019800010D1A26A4FF0FF3300F4403103EB520252
:10199000B1EB024F06D194F82C1000F07060B0EB60
:1019A000016F01D00120D1E70020CFE704380240C9
:1019B00000004742800E4742007000400000FFFFD9
:1019C00010B5401EB0F1807F01D3012010BD4FF053
:1019D000E02460610F21601702F06FFB0020A0611E
:1019E00007202061002010BD7047704770B590F847
:1019F0003C20012A32D0012480F83C40022280F8A9
:101A00003D2003685A689D6822F070060A683243D8
:101A10005A60134B02689A4214D0B2F1804F11D031
:101A2000104B9A420ED0104B9A420BD00F4B9A4259
:101A300008D00F4B9A4205D00E4B9A4202D00E4B63
:101A40009A4204D1496825F080031943916080F8D7
:101A50003D40002180F83C10084670BD022070BD5A
:101A6000000001400004004000080040000C00405D
:101A700000040140004001400018004010B504007F
:101A800003D094F83D0010B107E0012010BD002004
:101A900084F83C00204600F01FF8022084F83D0046
:101AA000211D206801F096FF012084F8460084F88B
:101AB0003E0084F83F0084F8400084F8410084F838
:101AC000420084F8430084F8440084F8450084F818
:101AD0003D00002010BD000008B500680B49884299
:101AE00012D10B48016841F0010101600068002239
:101AF00000F00100009011461920FFF78DFCBDE8B1
:101B000008401920FFF77ABC08BD00000000014022
:101B10004438024090F83D10012901D0012070475F
:101B2000022180F83D100168CA6842F00102CA60D3
:101B300000681149884214D0B0F1804F11D00F498C
:101B400088420ED00E4988420BD00E49884208D0F8
:101B50000D49884205D00D49884202D00C4988427F
:101B600004D1816801F00701062903D0016841F022
:101B700001010160002070470000014000040040A6
:101B800000080040000C00400004014000400140FB
:101B90000018004070B5044690F83C00002501286C
:101BA00017D0012684F83C60022084F83D002068AC
:101BB000826822F0770222F47F428260086850280F
:101BC00038D00DDC20284FD005DC90B3102811D17F
:101BD0004AE0022070BD302846D040280AD13BE0C0
:101BE00060282FD070280DD0B0F5805F03D0B0F5FD
:101BF000005F12D0012584F83D60002084F83C008D
:101C0000284670BDCB68D1E90121206801F05BFF57
:101C10002068816841F0770109E0CB68D1E90121B2
:101C2000206801F050FF2068816841F480418160A4
:101C3000E1E719E0CA684968206802F019F8502104
:101C4000206806E0CA684968206802F022F860212E
:101C5000206801F042FFCEE7CA684968206802F0B8
:101C600007F840212068F4E7226801461046F0E7B3
:101C700070472DE9F04104460068C66805694FF0D9
:101C80000007A90713D5B10711D5F91E016101207D
:101C90002077206880698007204602D0FFF7E8FFA0
:101CA00004E000F0D9F8204600F0A0F92777680793
:101CB00016D5700714D521686FF004000861022062
:101CC00020772068806910F4407F204602D0FFF71B
:101CD000CFFF04E000F0C0F8204600F087F9277736
:101CE000280715D5300713D521686FF00800086163
:101CF000042020772068C0698007204602D0FFF7C3
:101D0000B7FF04E000F0A8F8204600F06FF927774D
:101D1000E80616D5F00614D521686FF010000861AA
:101D2000082020772068C06910F4407F204602D048
:101D3000FFF79EFF04E000F08FF8204600F056F910
:101D40002777E80708D0F00706D021686FF0010078
:101D50000861204600F0B0F9280608D5300606D5FF
:101D600021686FF0800008612046FFF73DFE68069D
:101D700008D5700606D521686FF04000086120463E
:101D800000F09BF9A8060AD5B00608D521686FF0C7
:101D9000200008612046BDE8F041FFF726BEBDE8FF
:101DA000F081000010B586B0044614216846FEF7A5
:101DB0003FFA2368002122480222B3F1804F17D056
:101DC000204CA34226D1036843F00403036000685B
:101DD00000F0040005904FF440700090CDE901211F
:101DE000CDE9031269461848FFF7A6F906B010BD01
:101DF000036843F001030360006800F001000590F0
:101E000003200090CDE901210120CDE903106946AE
:101E10000E48E9E70E4CA342E8D1036843F00803FB
:101E20000360006800F0080005904FF470400090D7
:101E3000CDE90121CDE9031269460648D4E7000047
:101E40003038024000040040000802400000024018
:101E500000080040000C0240704770B5044690F83E
:101E60003C0000260D4601280FD0012084F83C00DC
:101E70006AB1042A1DD0082A2FD00C2A3FD001268F
:101E8000002084F83C00304670BD022070BD206800
:101E900001F02CFE2068816941F008018161206811
:101EA000816921F004018161206881692A691143F7
:101EB00011E0206801F04AFE2068816941F4006168
:101EC00081612068816921F4806181612068816974
:101ED0002A6941EA02218161D2E7206801F06CFEA3
:101EE0002068C16941F00801C1612068C16921F021
:101EF0000401C1612068C1692A69114311E02068A9
:101F000001F08EFE2068C16941F40061C161206862
:101F1000C16921F48061C1612068C1692A6941EA0F
:101F20000221C161ACE710B5040003D094F83D0074
:101F300010B107E0012010BD002084F83C002046CD
:101F400000F01EF8022084F83D00211D206801F0F9
:101F500041FD012084F8460084F83E0084F83F00EB
:101F600084F8400084F8410084F8420084F843007B
:101F700084F8440084F8450084F83D00002010BD3A
:101F800008B501681648B1F1804F0AD0154A914250
:101F900019D1016841F002010160006800F00200FF
:101FA0001BE0016841F0010101600068002200F0BF
:101FB0000100009011461C20FFF72EFABDE80840F2
:101FC0001C20FFF71BBA084A914207D1016841F073
:101FD00004010160006800F00400009008BD0000EA
:101FE00040380240000400400008004070470000F4
:101FF00010B50446022249B104290ED0082913D095
:1020000094F84100012816D0012010BD94F83E003C
:102010000128F9D184F83E200FE094F83F00012810
:10202000F2D184F83F2008E094F840000128EBD179
:1020300084F8402001E084F841200122206801F06A
:1020400035FD16492068164A884201D0904203D1D6
:10205000436C43F4004343642068884213D0B0F1DA
:10206000804F10D00F4988420DD00F4988420AD0C6
:102070000E49884207D0904205D00D49884202D0CF
:102080000C49884204D1816801F00701062903D078
:10209000016841F001010160002010BD0000014015
:1020A000000401400004004000080040000C004013
:1020B000004001400018004070477047704770476B
:1020C000F8B5016804460868CA684B6910F00F0F3C
:1020D0004FF0000559D003F0010602F49077374322
:1020E00065D0C10705D0D10503D5616C41F0010170
:1020F0006164410705D5D90703D0616C41F0020145
:102100006164810705D5D90703D0616C41F00401F2
:102110006164010707D502F02001314303D0616CEF
:1021200041F008016164616C00293AD0800604D551
:10213000900602D5204601F0A3FE20684069616C3C
:10214000C0F38010090700D460B3204601F054FEAC
:1021500020684069400621D52068143050E8001FEF
:1021600021F0400140E80012002AF5D1E06BA8B14F
:102170006E490165E06BFEF748FE002811D0E06B68
:10218000016D01B0BDE8F040084783060FD5930606
:102190000DD52046BDE8F84001F072BE2046FFF79D
:1021A0008EFFF8BD2046FFF78AFF6564F8BD266BF9
:1021B0002023012E7DD1C6067BD5D60679D50868A9
:1021C0004868009048694FF00206400641D5E16B2F
:1021D000086840680004000CE8D0A28D8242E5D96E
:1021E000E085C869B0F5807F2DD020680C3050E8BC
:1021F000001F21F4807140E80012002AF5D1206808
:10220000143050E8001F21F0010140E80012002ABC
:10221000F5D12068143050E8001F21F0400140E85B
:102220000012002AF5D184F84230256320680C3072
:1022300050E8001F21F0100140E80012002AF5D1FB
:10224000E06BFEF799FD6663A08DE18D401A81B2C7
:102250002AE0A08DE18D401A81B2E08D0028A5D042
:102260000029A3D022680C3252E8000F20F49070AD
:1022700042E80007002FF5D12068143050E8002F05
:1022800022F0010240E80027002FF5D184F8423007
:10229000256320680C3050E8002F22F0100240E83F
:1022A0000023002BF5D166632046FFF707FFF8BD3A
:1022B000FFE705062BD5150629D594F841002128FE
:1022C000F5D1A068B0F5805F01D12069B0B1206A76
:1022D000411C2162216800784860E08C401E0004A7
:1022E000000CE084E3D12068C16821F08001C16066
:1022F0002068C16841F04001C160D8E7206A0088C9
:10230000C0F308004860206A801C2062E5E74006B0
:10231000CDD55006CBD5CA68204622F04002CA600F
:1023200084F8413000F020FEC1E70000E93D0008DC
:1023300070B5040004D094F84100002510B106E007
:10234000012070BD84F84050204600F023F824207E
:1023500084F841002068C16821F40051C160204622
:1023600001F0F0FD2068016921F4904101612068CD
:10237000416921F02A0141612068C16841F400519E
:10238000C1606564202084F8410084F842006563E0
:10239000002070BD2DE9F04F87B004461421684637
:1023A000FDF746FF8949DFF820C223680024874AE9
:1023B000103902250326082785484FF4406A6345F3
:1023C0001FD1136843F400231360126802F4002243
:1023D00005920A6842F004020A600968CDF800A07C
:1023E00001F00401CDE904710396CDE90154694679
:1023F000FEF7A2FE002211463420FFF70DF834202C
:1024000037E0DFF8D0C1DFF8D0B1634536D11368CB
:1024100043F480131360126802F4801205920A6874
:1024200042F004020A600A6802F0040205920A6897
:1024300042F008020A60096802AB01F00801059148
:102440004FF48051CDE9001583E8D0006946FEF7CE
:1024500073FE0420CDE9000502AB694683E8D00095
:102460005846FEF769FE002211463520FEF7D4FFDC
:102470003520FEF7C3FF07B0BDE8F08FDFF85C81C1
:10248000DFF848914FF0070C09F1040943452BD1BF
:10249000D9F8002042F01002C9F80020D9F8000055
:1024A00000F010000590086840F00100086008681E
:1024B00002AA00F0010005904FF4C060CDE90005CC
:1024C00082E8501069464648FEF736FE0022114663
:1024D0002520FEF7A1FF2520FEF790FF01224149AC
:1024E000414800F08BF8C6E7DFF80081434520D172
:1024F000106840F400301060106800F4003005905F
:10250000086840F008000860086802AB00F00800A6
:1025100005906020CDE9000583E8501069465846D3
:10252000FEF70AFE002211462620FEF775FF262040
:102530009FE7DFF8BC80434520D1106840F480203D
:102540001060106800F480200590086840F00200D8
:1025500008600868CDF800A000F00200CDE904C0D2
:102560000396CDE9015469462248FEF7E5FD0022B5
:1025700011462720FEF750FF27207AE71E4A934294
:10258000B1D1D9F8003043F02003C9F80030D9F8B0
:10259000002002F0200205920A6842F004020A605C
:1025A000096802AA01F004010591C021CDE90015D6
:1025B00082E8D0006946FEF7BFFD002211464720A1
:1025C000FEF72AFF472054E7004C00404038024005
:1025D0000008024000500040000C02400010014082
:1025E0000000024058000020340300200044004056
:1025F00000480040000402400014014090F84230BE
:10260000202B01D00220704721B11AB100230363AF
:1026100001F01EBD012070472DE9F14FFD4982B048
:10262000DFF8EC8302980B784D78D0F800C0581C86
:10263000C7B291F803A091F8049088780090401CEC
:1026400000F0FF0B00981A1F00248E694FF00F0E48
:1026500000EB8000C44575D101F10D0C88469CF853
:1026600000C0042B08D2BCF1AA0F02D088F80040A9
:102670007AE088F8007077E0062A71D274D2DFE839
:1026800002F0030819545966BCF1000F18D00C7001
:102690004C70BCF1020F16D0BCF10D0F1DD0BCF177
:1026A0000F0F22D0BCF1100F27D0BCF1140F2CD08B
:1026B0000C704C70BCF1000F2FD00C704C7037E0D8
:1026C00005220A7040E00222CA700A78521C0A7081
:1026D0004A78921C88F8012049E00D20C8700878DB
:1026E000401C087048780D30E6E081F803E0087877
:1026F000401C087048780F30DEE01020C870087861
:10270000401C087048781030D6E01420C870087853
:10271000401C087048781430CEE00A78521C0A70C9
:1027200091F8012088F801201EE0BCF1000F0AD0CA
:102730000C704C7081F804C00A78521C0A704A78F8
:102740006244EFE7E6E00F7088F801500CE009EB17
:102750000C220A710A220A7005EB0C02E2E7FFE77D
:102760000A2B01D188F80540BAF1020F77D198F809
:102770000510002973D198F8001009296FD9A64DCA
:10278000BE297DD2A1F10A0292FBFEF70EFB1722B1
:10279000D2B288F809200F2A72D2DFE802F0080BC3
:1027A00012171E232930363B40464D53610025F851
:1027B00020C04BE035F8202002EB0C2225F8202029
:1027C00044E005EB8000A0F802C03FE005EB80008C
:1027D000428802EB0C22428038E005EB8000C0F812
:1027E00004C033E005EB8000426802EB0C2204E0F9
:1027F00005EB8000426802EB0C42426026E005EBEC
:102800008000426802EB0C62F7E705EB800080F87D
:1028100008C01BE005EB8000C0F80CC016E005EB1B
:102820008000C26802EB0C2204E005EB8000C26865
:1028300002EB0C42C26009E005EB8000C26802EBCB
:102840000C62F7E705EB8000A0F810C098F80100D3
:10285000491C604488F8010088F8001010E054E03A
:1028600005EB8000491C028A02EB0C22028298F8D8
:102870000100604488F8010088F8001088F802B070
:10288000C8B2BF280AD0C0280CD0C12817D0C2288F
:102890001BD0C3281FD0BE2834D036E0C020C8F8D3
:1028A00018C004E006EB0C20C8F81800C12088F816
:1028B000000098F80100604488F8010025E006EB6C
:1028C0000C40C8F81800C220F1E706EB0C60C8F80D
:1028D0001800C320EBE798F80100844505D101F00A
:1028E0000BFC4E490888401C08804D492888088008
:1028F00088F8014088F80040012088F8050088F831
:10290000024002E0BF2088F80000424901220D3158
:10291000444814E3DFF81081C44577D1DFF8F4C0F0
:1029200088460CF10C0C042B9CF800C008D2BCF1BA
:10293000AA0F02D088F8004088E088F8007085E08F
:10294000062A7FD254D2DFE802F0030819545975E1
:10295000BCF1000F18D00C704C70BCF1020F16D0F7
:10296000BCF10D0F1DD0BCF10F0F22D0BCF1100F28
:1029700027D0BCF1140F2CD00C704C70BCF1000FA0
:102980002FD00C704C7037E005220A704FE0022205
:10299000CA700A78521C0A704A78921C88F8012082
:1029A00057E00D20C8700878401C087048780D303A
:1029B000F3E081F803E00878401C087048780F3095
:1029C000EBE01020C8700878401C08704878103080
:1029D000E3E01420C8700878401C08704878143070
:1029E000DBE00A78521C0A7091F8012088F8012077
:1029F0002CE0BCF1000F19D00C704C7081F804C0B1
:102A00000A78521C0A704A786244EFE7F2E019E053
:102A1000004C00404C000020540400200400002022
:102A200008000020A4020020001001400F7088F868
:102A300001500BE009EB0C220A710A220A7005EB27
:102A40000C02D3E70A2B01D188F80540BAF1020F36
:102A500034D198F8051089BB98F8001009292DD9B0
:102A6000F84DBE297DD2A1F10A0292FBFEF70EFBC2
:102A70001722D2B288F80A200F2A72D2DFE802F0B9
:102A8000080B12171F242A31373C41474E5461006E
:102A900025F820C04CE035F8202002EB0C2225F868
:102AA000202045E005EB8000A0F802C040E005EBE7
:102AB0008000428802EB0C22428039E096E005EB70
:102AC0008000C0F804C033E005EB8000426802EBF0
:102AD0000C2204E005EB8000426802EB0C424260ED
:102AE00026E005EB8000426802EB0C62F7E705EB9D
:102AF000800080F808C01BE005EB8000C0F80CC027
:102B000016E005EB8000C26802EB0C2204E005EB46
:102B10008000C26802EB0C42C26009E005EB800055
:102B2000C26802EB0C62F7E705EB8000A0F810C06A
:102B300098F80100491C604488F8010088F80010EA
:102B40000FE005EB8000491C028A02EB0C22028296
:102B500098F80100604488F8010088F8001088F8AF
:102B600002B0C8B2BF280AD0C0280CD0C12817D0E4
:102B7000C2281BD0C3281FD0BE2834D036E0C020C6
:102B8000C8F818C004E006EB0C20C8F81800C120F3
:102B900088F8000098F80100604488F8010025E0FA
:102BA00006EB0C40C8F81800C220F1E706EB0C60F9
:102BB000C8F81800C320EBE798F80100844505D158
:102BC00001F000FBA0490888401C08809F49288824
:102BD000088088F8014088F80040012088F8050046
:102BE00088F8024002E0BF2088F8000001229849DE
:102BF0009848A4E1DFF86082C44577D1DFF850C27D
:102C000088460CF1030C042B9CF800C008D2BCF1E0
:102C1000AA0F02D088F800407AE088F8007077E0C8
:102C2000062A71D274D2DFE802F0030819545966FB
:102C3000BCF1000F18D00C704C70BCF1020F16D014
:102C4000BCF10D0F1DD0BCF10F0F22D0BCF1100F45
:102C500027D0BCF1140F2CD00C704C70BCF1000FBD
:102C60002FD00C704C7037E005220A7040E0022231
:102C7000CA700A78521C0A704A78921C88F801209F
:102C800049E00D20C8700878401C087048780D3065
:102C9000F2E081F803E00878401C087048780F30B3
:102CA000EAE01020C8700878401C0870487810309E
:102CB000E2E01420C8700878401C0870487814308E
:102CC000DAE00A78521C0A7091F8012088F8012095
:102CD0001EE0BCF1000F0AD00C704C7081F804C0EB
:102CE0000A78521C0A704A786244EFE7F1E00F70EC
:102CF00088F801500CE009EB0C220A710A220A70D4
:102D000005EB0C02E2E7FFE70A2B01D188F805404A
:102D1000BAF1020F35D198F8051091BB98F8001060
:102D200009292ED9474DF035BE297DD2A1F10A02DD
:102D300092FBFEF70EFB1722D2B288F80B200F2A67
:102D400072D2DFE802F0080B12171F242A31373C39
:102D500041474E54610025F820C04CE035F8202052
:102D600002EB0C2225F8202045E005EB8000A0F8BE
:102D700002C040E005EB8000428802EB0C2242805A
:102D800039E0A2E005EB8000C0F804C033E005EBB9
:102D90008000426802EB0C2204E005EB80004268F0
:102DA00002EB0C42426026E005EB8000426802EB39
:102DB0000C62F7E705EB800080F808C01BE005EB2C
:102DC0008000C0F80CC016E005EB8000C26802EB82
:102DD0000C2204E005EB8000C26802EB0C42C260EA
:102DE00009E005EB8000C26802EB0C62F7E705EB37
:102DF0008000A0F810C098F80100491C604488F8D1
:102E0000010088F800100FE005EB8000491C028AE1
:102E100002EB0C22028298F80100604488F801005D
:102E200088F8001088F802B0C8B2BF2816D0C028B1
:102E300018D0C12823D0C22827D0C3282BD0BE2821
:102E400040D042E044050020180000201C00002073
:102E5000580000203403002000440040C020C8F87F
:102E600018C004E006EB0C20C8F81800C12088F850
:102E7000000098F80100604488F8010025E006EBA6
:102E80000C40C8F81800C220F1E706EB0C60C8F847
:102E90001800C320EBE798F80100844505D101F044
:102EA000EDF92A490888401C0880294928880880AB
:102EB00088F8014088F80040012088F8050088F86B
:102EC000024002E0BF2088F8000001222149224888
:102ED00035E02248844537D11F4A0298903290420B
:102EE00032D11F4A1C488B791278E43883B1CB79F0
:102EF000092BC25402D20D7A55400D725B1CDAB216
:102F0000CA710C2A17D38C71C27A7D2A08D012E0BC
:102F10007B2A10D102700120C8710A7288710AE000
:102F2000407A097A884206D10B48E43800F096FFCF
:102F30000C4901200870084801220949903003B06B
:102F4000BDE8F04FFFF75ABBBDE8FE8F2C00002014
:102F5000300000205B0000207C03002000140140B2
:102F60008A000020880000207047FEE77FB500241B
:102F700020480094019402941D49039401600125A6
:102F80004FF480310561C0E90114057680F82040D6
:102F90001949C0E90A140326C661C46080F83040AC
:102FA0004561FDF7B8FD08B1FDF70BFD0D208DE87B
:102FB000610069460F48FDF705FD08B1FDF701FD09
:102FC000052000900220019069460A48FDF7FAFCAE
:102FD00008B1FDF7F6FC0720CDE90006694602942A
:102FE0000448FDF7EFFC002801D0FDF7EAFC7FBDA7
:102FF00000200140D00000200100000F094808B562
:10300000016841F4800101600068002200F4800042
:10301000009011463820FEF7FFF9BDE8084038203F
:10302000FEF7ECB93038024070B586B0142168461E
:10303000FDF7FEF81E480025016841F0040101601B
:10304000016801F004010591016841F0800101600F
:10305000016801F080010591016841F00101016002
:10306000016801F001010591016841F00201016070
:10307000016801F002010591016841F00801016059
:1030800000680C4E00F008004FF4407405900022D8
:1030900021463046FEF74DF90120CDE900400220DF
:1030A000CDE9025069463046FEF746F806B070BDDD
:1030B000303802400004024010B586B000241848A1
:1030C00000940194029403940494144905940160BB
:1030D00044F29F11C0E9011440F2E731C0E9031442
:1030E0008021C0E90541FEF7C9FC08B1FDF769FC84
:1030F0004FF48050009069460948FEF74BFD08B137
:10310000FDF75FFC049404A905480594FEF76EFCE6
:10311000002801D0FDF755FC06B010BD00000140AD
:103120007801002010B58AB0002407941C2168465D
:103130000894FDF77DF819484FF080410160A72100
:10314000C0E901146321C0E903148461FEF7EBFEBA
:1031500008B1FDF736FC079407A910480894FEF75C
:1031600045FC08B1FDF72DFC6020CDE90004029478
:103170000022694609480494FEF76FFE08B1FDF786
:1031800020FC042269460548FEF767FE08B1FDF7FA
:1031900018FC0248FEF706FE0AB010BDC001002070
:1031A00010B58AB0002407941C2168460894FDF7E6
:1031B0003FF81A4818490160A721C0E901146321AA
:1031C000C0E903148461FEF7AEFE08B1FDF7F9FB18
:1031D000079407A911480894FEF708FC08B1FDF709
:1031E000F0FB6020CDE900040294082269460B48F8
:1031F0000494FEF732FE08B1FDF7E3FB0C226946AA
:103200000648FEF72AFE08B1FDF7DBFB0348FEF790
:10321000C9FD0AB010BD00000004004008020020F3
:1032200010B58AB0002407941C2168460894FCF766
:10323000FFFF224820490160A721C0E90114632152
:10324000C0E903148461FEF76EFE08B1FDF7B9FB17
:10325000079407A919480894FEF7C8FB08B1FDF7C1
:10326000B0FB6020CDE900040294002269461348B7
:103270000494FEF7F2FD08B1FDF7A3FB04226946B2
:103280000E48FEF7EAFD08B1FDF79BFB08226946F0
:103290000A48FEF7E2FD08B1FDF793FB0C226946F0
:1032A0000648FEF7DAFD08B1FDF78BFB0348FEF791
:1032B00079FD0AB010BD0000000800405002002057
:1032C0000E4810B50C4901604FF461314160002196
:1032D00081600C22C160C0E904128161C161FFF705
:1032E00027F808B1FDF76DFBBDE810400122044945
:1032F0000248FFF783B90000004C0040A402002000
:10330000590000200E4810B50C4901604FF461319E
:103310004160002181600C22C160C0E9041281611A
:10332000C161FFF705F808B1FDF74BFBBDE81040A0
:10333000012204490248FFF761B900000050004033
:10334000EC0200205A0000200E4810B50C49016024
:103350004FF461314160002181600C22C160C0E9FD
:1033600004128161C161FEF7E3FF08B1FDF729FB9B
:10337000BDE81040012204490248FFF73FB90000B0
:103380000010014034030020580000200E4810B502
:103390000C4901604FF461314160002181600C22D1
:1033A000C160C0E904128161C161FEF7C1FF08B1CB
:1033B000FDF707FBBDE81040012204490248FFF772
:1033C0001DB90000004400407C0300205B00002089
:1033D0000E4810B50C4901604FF461314160002185
:1033E00081600C22C160C0E904128161C161FEF7F5
:1033F0009FFF08B1FDF7E5FABDE81040012204493E
:103400000248FFF7FBB8000000480040C40300205A
:103410005C0000200C4810B50A4901604FF4E1310E
:103420004160002181600C22C160C0E90412816109
:10343000C161FEF77DFF002803D0BDE81040FDF715
:10344000C0BA10BD001401400C040020FEE70000CB
:103450009FED060B10B5B0EE401AF0EE601A01F0C9
:10346000AFF8BDE810401420FDF754BE0000000086
:1034700000000000FEE770B500240021204600F0A7
:10348000ABF80025002000F030F96D1CEDB2802D66
:10349000F8D3641CE4B2082CEFD370BD10B5FFF76D
:1034A000C3FD012000F000F9BDE81040012000F04C
:1034B00003B970B500240546802626FA04F028409A
:1034C00000F0FAF8012000F0EFF8002000F0ECF82E
:1034D000641CE4B2082CF0D3012000F0E5F8BDE84C
:1034E0007040002000F0E0B810B5012000F0E4F8D2
:1034F000012000F0D9F8002000F0DEF8BDE810400F
:10350000002000F0D1B810B5002000F0D5F801205F
:1035100000F0CAF8BDE81040012000F0CDB810B5A9
:1035200000204FF47A720021491C9142FCD3401CC8
:103530009042F8D3FFF7B2FFAE2000F0C5F8D520D7
:1035400000F0C2F8802000F0BFF8A82000F0BCF81E
:103550003F2000F0B9F8D32000F0B6F8002000F0CA
:10356000B3F8402000F0B0F8A12000F0ADF8C8207A
:1035700000F0AAF8DA2000F0A7F8122000F0A4F872
:10358000812000F0A1F8CF2000F09EF8D92000F0B3
:103590009BF8F12000F098F8DB2000F095F830203F
:1035A00000F092F8A42000F08FF8A62000F08CF82C
:1035B0008D2000F089F8142000F086F8AF2000F08C
:1035C00083F8BDE81040FFF756BF0246012000E037
:1035D0005043491EFCD2704710B50C4640F0B00075
:1035E00000F072F8102040EA141000F06DF804F0BA
:1035F0000F00BDE8104000F067B800002DE9F04171
:103600000746CE004000083E801E15464FF0FF38AA
:10361000F1B2C0B2FFF7E0FF1148002400EB05153E
:103620002819A0F5805090F8000E00F05EF8641C98
:10363000E4B2082CF4D308EB4700F1B2C0B2FFF7B4
:10364000CBFF00242819A0F5805090F8080E00F058
:103650004CF8641CE4B2082CF4D3BDE8F0810000FF
:10366000084C00082DE9F04700241D461646884600
:1036700081460A2713E0291B0A20491EFFF7A5FFF0
:10368000B6FBF0F0B0FBF7F107FB110208EB04000A
:10369000C1B248463032FFF7B1FF641CE4B2AC421D
:1036A000E9D3BDE8F087000002464FF4807101487D
:1036B000FDF73FBE0004024002464FF4007101488E
:1036C000FDF737BE0004024010B50446FFF70CFFBB
:1036D0007820FFF7EEFE0020FFF7EBFE2046FFF715
:1036E000E8FEBDE81040FFF70EBF10B50446FFF737
:1036F000FBFE7820FFF7DDFE4020FFF7DAFE2046D4
:10370000FFF7D7FEBDE81040FFF7FDBE10B5124829
:10371000FEF709FC00211048FEF76AFC04210E4860
:10372000FEF766FC08210D48FEF762FC0C210B48F1
:10373000FEF75EFC00210A48FEF75AFC0421084807
:10374000FEF756FC08210648FEF752FCBDE8104083
:103750000C210348FEF74CBCC001002008020020E9
:103760005002002030B50F4C0F4B104A24681B68E4
:103770001268092807D2DFE800F0060507090B0DDB
:103780000F111300616330BDA16330BDD96330BD3B
:10379000196430BD516330BD916330BDD16330BD1C
:1037A000116430BDC001002008020020500200203A
:1037B000704700002DE9F04131482DED048B017870
:1037C000002959D0002101708788C6888FB38EB335
:1037D0002C480088A0F16501632939D2FCF75DFE11
:1037E0000D4645EC100B9FED289B044653EC192B1E
:1037F00051EC100BFCF7CEFD41EC180B3046FCF7FA
:103800004CFE53EC182BFCF7BFFD45EC104B41EC84
:10381000180B53EC192B51EC100BFCF7BBFD41ECD2
:10382000190B3846FCF739FE53EC192BFCF7ACFDAD
:1038300016E000E008E03046FCF72FFE41EC180BE4
:103840007042FCF719FE0BE07842FCF715FE02E02F
:103850003046FCF722FE41EC180B3846FCF71DFE03
:10386000B0EE481AF0EE681ABDEC048B41EC100B78
:10387000BDE8F04100F0A4BEBDEC048BBDE8F081D2
:10388000880000204200002079E9263108AC9C3FE6
:1038900040210148FDF748BD0000024010210148C9
:1038A000FDF742BD0000024008210148FDF73CBD84
:1038B0000004024010210148FDF736BD000402401B
:1038C0007047FDF741BD000030B593B03021684628
:1038D000FCF7AEFC14210CA8FCF7AAFC1C48002540
:1038E000016841F080510160006800F08050119043
:1038F0001848016841F4804101600068022400F426
:1039000080401190012003901020049000940694B0
:103910000820CDE90750A820CDE9090404200B9028
:103920006846FDF797FE00B1FEE70CA90F2081E87D
:1039300031004FF4A0500F904FF4805010900521AB
:103940000CA8FDF79BFD002800D0FEE713B030BDAA
:1039500040380240007000400248016841F47001A4
:103960000160704788ED00E010B51348FEF781F95B
:10397000FCF784FF00F0DCFC104C024601232070B1
:103980000F210320FFF76EFE22780D4B0D4800211A
:103990001AB1012A0BD0046802E00468641C0460B8
:1039A0000F2C03D3002A01D10160198010BD0160E2
:1039B0000120188010BD00007801002000000020C8
:1039C00002000020680000200148FEF752B9000004
:1039D000C0010020F0B50268294C2A4D2A4E2B4F19
:1039E0002B4B4FF0804CA04209D0604507D0A84235
:1039F00005D0B04203D0B84201D0984204D122F0A1
:103A0000700E4A6842EA0E02A0421BD0604519D0EF
:103A1000A84217D0B04215D0B84213D0984211D066
:103A20001C4DA8420ED01C4DA8420BD01B4DA842E5
:103A300008D01B4DA84205D01A4DA84202D01A4DFD
:103A4000A84203D122F44075CA682A434D6922F086
:103A500080022A4302608A68C2620A688262A042C7
:103A600001D0984201D109690163012141610169D5
:103A7000C90703D0016921F001010161F0BD000017
:103A8000000001400004004000080040000C00401D
:103A90000004014000400140004401400048014052
:103AA00000180040001C00400020004010B501F04C
:103AB0001F030121046A99408C430462016A9A4001
:103AC0001143016210BD10B5846842EA032224F458
:103AD0007F440A432243826010BD826822F0700254
:103AE0000A4342F00701816070470000F0B5036AA5
:103AF000026A22F00102026242688469124E24F0D6
:103B000073050C682C4323F002058B682B430D4D85
:103B1000A84201D0B04205D123F00807CB683B434F
:103B200023F00403A84201D0B04205D14D6922F42C
:103B3000407215438A692A4342608461496841633F
:103B40000362F0BD0000014000040140F0B5026ACC
:103B5000036A23F010030362436884690D6824F448
:103B6000E64444EA05248D6822F0200242EA051268
:103B70000F4D104EA84201D0B04206D1CF6822F0BE
:103B8000800242EA071222F04002A84201D0B0426D
:103B900007D14D6923F4406343EA85038D6943EA05
:103BA000850343608461496881630262F0BD00005F
:103BB0000000014000040140F0B5026A036A23F4EA
:103BC000807303624368C46922F4007224F07305B1
:103BD0000C68124E2C438D6842EA05220E4DA84215
:103BE00001D0B04206D1CF6822F4006242EA072237
:103BF00022F48062A84201D0B04207D14D6923F47B
:103C0000405343EA05138D6943EA05134360C461D9
:103C10004968C1630262F0BD000001400004014038
:103C200030B5046A026A22F4805202624268C369B3
:103C30000D6823F4E64343EA05238D6824F4005419
:103C400044EA0534084DA84202D0084DA84204D1E8
:103C50004D6922F4804242EA85124260C36149689C
:103C60000164046230BD0000000001400004014016
:103C700010B5036A046A24F001040462846924F024
:103C8000F00444EA021423F00A020A438461026247
:103C900010BD10B5036A046A24F01004046284693C
:103CA00023F0A00324F4704444EA023243EA0111F1
:103CB0008261016210BD000070B50E4C2DED028BCB
:103CC00020780546FCF7E9FB41EC180B6842FCF74D
:103CD000D3FB41EC100BB0EE481AF0EE681A00F07E
:103CE0006FFC6078BDEC028B8000BDE87040FDF792
:103CF00011BA00007C00002070B5194C2DED028B2C
:103D000025786808FCF7C9FB41EC180B684200EB0A
:103D1000D0704010FCF7B0FB41EC100BB0EE481A2D
:103D2000F0EE681A00F04CFC6078FDF7F3F92078AB
:103D30000546FCF7B2FB41EC180B6842FCF79CFB14
:103D400041EC100BB0EE481AF0EE681A00F038FCA7
:103D50006078BDEC028BBDE87040FDF7DBB9000078
:103D60007C00002070B5194C2DED028B257868423F
:103D700000EBD0704010FCF77FFB41EC180B68089B
:103D8000FCF78BFB41EC100BB0EE481AF0EE681A12
:103D900000F016FC6078FDF7BDF925786842FCF765
:103DA0006BFB41EC180B2846FCF777FB41EC100B42
:103DB000B0EE481AF0EE681A00F002FC6078BDEC34
:103DC000028BBDE87040FDF7A5B900007C00002023
:103DD0000148FEF775B90000A40200200148FEF773
:103DE0006FB90000EC02002010B5806B0021C18586
:103DF000C184FEF764F910BD01680C3151E8002F51
:103E000022F4907241E80023002BF5D101681431AF
:103E100051E8002F22F0010241E80023002BF5D1E8
:103E2000016B012909D101680C3151E8002F22F002
:103E3000100241E80023002BF5D1202180F8421028
:103E40000021016370470000012202490248FEF789
:103E5000D5BB00008A0000200C04002030F8011FB0
:103E60004ABA06498A80428852BACA80828852BABF
:103E70000A81C08840BA488170470000880000204D
:103E800008B590F84210222901D0022008BD8268AE
:103E90004FF480539A4201D1016921B1816A9A425B
:103EA0001BD04AB10AE00268816A5268C2F3080274
:103EB0000A80816A891C08E0026972B1026852684E
:103EC00002F07F020A70816A491C8162C18D491E1D
:103ED0000904090CC18503D01BE002685268F1E7B0
:103EE0000168CA6822F02002CA600168CA6822F428
:103EF0008072CA6001684A6922F001024A61202189
:103F000080F8421000214163026B012A03D0FEF7C2
:103F100083FB002008BD016301680C3151E8002FCC
:103F200022F0100241E80023002BF5D101680A6855
:103F3000D20602D50A6849680091818DFEF7BEF865
:103F4000E7E7000070B5044600680169E26821F403
:103F50004051114301612169A068E2690843616928
:103F6000114308432168CA6849F20C639A4302432B
:103F7000CA6020684169A26921F44071114341611E
:103F800031492068884202D03049884202D1FDF789
:103F90001FFB01E0FDF70CFBE269002319216425FA
:103FA0003226B2F5004F626828D0A0FB0101930FC2
:103FB0009200FCF705F90146B0FBF5F06FF018022E
:103FC000504301EB800006EB0010B0FBF5F000F071
:103FD000F002B1FBF5F002EB0012B1FBF5F06FF06F
:103FE0001803584301EB800006EB0010B0FBF5F01E
:103FF00000F00F0021681044886070BDA0FB010133
:1040000092185B41FCF7DCF80146B0FBF5F00201C9
:10401000B1FBF5F06FF01803584301EB800006EB9D
:10402000C000B0FBF5F000F0F80002EB4002B1FB7D
:10403000F5F0584301EB800006EBC000B0FBF5F053
:1040400000F00700D6E70000001001400014014016
:1040500081628285C28500214164222180F842105C
:10406000016921B10168CA6842F48072CA600168BE
:104070004A6942F001024A610068C16841F02001CA
:10408000C1600020704700000148FEF719B8000029
:10409000340300200148FEF713B800007C03002021
:1040A0000148FEF70DB80000C40300200148FEF7E8
:1040B00007B800000C040020FEE70907090E0028DD
:1040C00004DB00F1E02080F80014704700F00F00DE
:1040D00000F1E02080F8141D704702E008C8121FAC
:1040E00008C1002AFAD170477047002001E001C1E1
:1040F000121F002AFBD170472DE9F047DFF8A4A07A
:10410000294A002101EB81093AF929C0BCF1000FCD
:104110001FD0B2F812800AEB890508F10108A2F855
:1041200012808444B5F802806CF30F0008EB104C49
:104130006CF31F40D5F804C0664495F808C09C4451
:104140006CF30703D5F80CC02D8A6744254465F34A
:104150000F04491CC9B20C29D4D3518A00291FD09D
:1041600005B295FBF1F5DFF844C0000CB0FBF1F0AF
:10417000ACF800500E4D2880B6FBF1F00D4D2860D4
:10418000D8B2B0FBF1F00C4B1870B7FBF1F00B4B51
:10419000186020B290FBF1F009490880002050829D
:1041A000BDE8F087540400204C00002008000020E7
:1041B0000A0000201000002006000020140000204B
:1041C0000C000020F0B501EB8102244931F8227087
:1041D0002349FFB18F8ADFF884C07F1CACF1F00C5B
:1041E0008F823CF822700CEB82020744B2F802C0C6
:1041F00067F30F000CEB104767F31F4057683D440F
:10420000177A1F4467F30703D768128A3E44224493
:1042100062F30F048A8A002A1FD007B297FBF2F7D5
:10422000DFF840C0000CB0FBF2F0ACF800700E4FAD
:104230003880B5FBF2F00D4D2860D8B2B0FBF2F03B
:104240000B4B1870B6FBF2F00A4B186020B290FBD3
:10425000F2F0094A108000208882F0BD4405002059
:104260004C0000201C0000201E0000202400002024
:104270001A0000202800002020000020F0B5244E65
:1042800001EB810C234936F92C70E7B1B1F816E047
:1042900006EB8C060EF1010EA1F816E00744B6F805
:1042A00002C067F30F000CEB104767F31F407768FD
:1042B0003C44377A174467F30702F768368A3D446F
:1042C0001E4466F30F03CE8A002E1FD007B297FB61
:1042D000F6F7DFF844C0000CB0FBF6F0ACF8007065
:1042E0000E4F3880B4FBF6F00D4C2060D0B2B0FB1E
:1042F000F6F00C4A1070B5FBF6F00B4A106018B2DD
:1043000090FBF6F0094A10800020C882F0BD000042
:10431000340600204C000020300000203200002035
:10432000380000202E0000203C0000203400002037
:10433000094900200A88AA2A00D201204A88162AA0
:1043400000D2401C8988642900D2401C022801D375
:1043500000207047012070474200002010B5FFF791
:1043600097FA10B9FFF79AFA20B1FFF791FA0128EE
:1043700002D004E0012010BDFFF790FA18B1FFF75A
:1043800087FA10B105E0022010BDFFF787FA012877
:1043900009D0FFF77DFA0128F6D1FFF77FFA01284F
:1043A000F2D1042010BD032010BD000070B52DED2A
:1043B000048BB0EE408AF0EE608A9FED299B51ECB1
:1043C000180B53EC192BFCF7C5F80ED251EC180B57
:1043D000FCF78FF8044681B20120FFF7C3F90021F2
:1043E0000220FFF7BFF9A1B22FE053EC192B51ECDB
:1043F000180BFCF797F84FF000014FF001001DD2A9
:10440000FFF7B0F951EC180B81F000410D4645EC77
:10441000100B044651EC100BFCF76BF881B2022034
:10442000FFF7A0F900210320FFF79CF945EC104BA2
:1044300051EC100BFCF75DF881B20AE0FFF792F93E
:1044400000210220FFF78EF900210320FFF78AF9EF
:104450000021BDEC048B0420BDE87040FFF782B959
:1044600000000000000000002DED028BFCF774FF3F
:10447000FFF755F8FFF728FAFEF7D6FDFEF7BEFD69
:10448000FEF762FFFEF7A4FFFEF74CFEFEF718FFF3
:10449000FEF738FFFEF7BEFFFEF778FFFEF766FD7A
:1044A000FEF77EFEFEF7BCFEFEF706FEFFF72EF9D6
:1044B000FFF7CAFC3448FDF72DFB4FF44870FCF7BA
:1044C00029FE9FED328BB0EE480AF0EE680AB0EE9E
:1044D000401AF0EE601A00F073F82E4C2E4D00BF1B
:1044E000B0EE480AF0EE680AB0EE401AF0EE601A3C
:1044F00000F066F820885028F2D828885028EFD895
:104500009FED260BB0EE401AF0EE601A00F058F85E
:104510004FF416742046FCF7FDFD9FED220BB0EE24
:10452000401AF0EE601A00F04BF82046FCF7F2FD5E
:104530009FED1E1B9FED1F0B00F042F82046FCF77D
:10454000E9FDB0EE480AF0EE680AB0EE401AF0EE6F
:10455000601A00F035F86010FCF7DCFD174C012301
:104560000F2162880420FFF77DF8012322780F21B4
:104570000220FFF777F8608810B100F0DDF8EEE771
:1045800000F08EF9EBE70000780100200000000049
:1045900000000000900000209200002000000000B9
:1045A000000037C000000000000033C00000000021
:1045B000000034C00000000000002CC000000020FB
:1045C00010B52A4C2DED068BB0EE409AF0EE609AB5
:1045D000B0EE418A9FED23ABF0EE618A53EC1A2BCB
:1045E00051EC190BFBF7B6FF02D2606800281DDB07
:1045F00053EC1A2B51EC190BFBF794FF02D26068B5
:10460000002813DC53EC1A2B51EC180BFBF7A2FF1C
:1046100002D2A068002809DB53EC1A2B51EC180BCE
:10462000FBF780FF04D2A068002801DDFEF710FF31
:10463000B0EE490AF0EE690AFFF7B8FEB0EE480A9C
:10464000F0EE680A00F014F851EC190BFBF732FF9A
:10465000606051EC180BFBF72DFFA060BDEC068BE2
:1046600010BD000000000000000000007C000020E1
:1046700070B52DED048BB0EE408AF0EE608A9FEDB0
:104680002C9B51EC180B53EC192BFBF763FF12D248
:1046900051EC180BFBF72DFF044681B20620FFF703
:1046A00061F800210520FFF75DF8A1B20820FFF7AF
:1046B00059F8002127E053EC192B51EC180BFBF7AC
:1046C00031FF4FF000014FF006001ED2FFF74AF80D
:1046D00051EC180B81F000410D4645EC100B0446DF
:1046E00051EC100BFBF705FF81B20520FFF73AF8FC
:1046F00000210820FFF736F845EC104B51EC100B69
:10470000FBF7F7FE81B207200BE0FFF72BF8002143
:104710000520FFF727F800210720FFF723F80021E5
:104720000820BDEC048BBDE87040FFF71BB800000B
:10473000000000000000000010B52DED048BFFF715
:104740000DFE01283ED0FFF709FE9FED519B9FED26
:10475000528B4FF4967404283AD0FFF7FFFD0228DD
:1047600063D0FFF7FBFD03287ED1B0EE491AF0EECF
:10477000691AB0EE490AF0EE690AFFF721FFC82076
:10478000FCF7C8FCB0EE480AF0EE680AB0EE401A3A
:10479000F0EE601AFFF714FF2046FCF7BBFCB0EE0A
:1047A000491AF0EE691AB0EE490AF0EE690AFFF70D
:1047B00007FFC820FCF7AEFCBDEC048BBDE8104041
:1047C000FFF79ABABDEC048BBDE81040FEF7F2BFCC
:1047D000B0EE491AF0EE691AB0EE490AF0EE690A35
:1047E000FFF7EEFEC820FCF795FCB0EE480AF0EEAD
:1047F000680AB0EE401AF0EE601AFFF7E1FE2046BC
:10480000FCF788FCB0EE491AF0EE691AB0EE490ADE
:10481000F0EE690AFFF7D4FEC820FCF77BFCBDEC84
:10482000048BBDE81040FFF747BAB0EE491AF0EE2E
:10483000691AB0EE490AF0EE690AFFF7C1FEC82016
:10484000FCF768FCB0EE480AF0EE680AB0EE401AD9
:10485000F0EE601AFFF7B4FE2046FCF75BFCB0EE0A
:10486000491AF0EE691A00E00EE0B0EE490AF0EEE7
:10487000690AFFF7A5FEC820FCF74CFCBDEC048BD1
:10488000BDE81040FFF76EBABDEC048B10BD000010
:1048900000000000000020C00000000000002EC04A
:1048A0002DE9F05F2DED088BFEF7FEFFB74C207071
:1048B000FFF700F8607021789FEDB59B00259FED14
:1048C000B68B012923D1012821D1E580B0EE481A09
:1048D000F0EE681AB0EE490AF0EE690AFFF770FED2
:1048E000C820FCF717FCA088401C80B2A0800828D4
:1048F0000DD3B0EE480AF0EE680AB0EE401AF0EEC2
:10490000601AFFF75DFEC820FCF704FCA580207844
:10491000617808437ED1A24EA24F30888C2802D203
:1049200038888C2846D3B0EE490AF0EE690AA58093
:10493000B0EE401AF0EE601AFFF742FE4FF42F700F
:10494000FCF7E8FBE088401C80B2E080032827D316
:10495000308839889FED94AB88420ED9B0EE4A1A60
:10496000F0EE6A1AB0EE490AF0EE690AFFF728FE87
:104970004FF4C870FCF7CEFBE58030883988884258
:104980000ED2B0EE491AF0EE691AB0EE4A0AF0EE15
:104990006A0AFFF715FE4FF4C870FCF7BBFBE58011
:1049A00020786178084335D130888C2832D2388815
:1049B0008C282FD2A5807E4EE5800120A070308803
:1049C0007C4F4FF4487940F2DC589FED7BAB9FED74
:1049D0007CBB4FF4AA7B4FF4167A48453AD239880B
:1049E000414537D9B0EE480AF0EE680AB0EE401AF9
:1049F000F0EE601AFFF7E4FDC820FCF78BFBB0EE89
:104A00004A1AF0EE6A1AB0EE4B0AF0EE6B0AFFF7A4
:104A1000D7FD00E062E05846FCF77CFBB0EE4B1A95
:104A2000F0EE6B1AB0EE4B0AF0EE6B0AFFF7C8FD22
:104A30005046FCF76FFBB0EE4B1AF0EE6B1AB0EE7F
:104A40004A0AF0EE6A0AFFF7BBFD4FF4AF70FCF7BD
:104A500061FBA5703888484544D23188414541D929
:104A6000B0EE480AF0EE680AB0EE401AF0EE601AB6
:104A7000FFF7A6FDC820FCF74DFBB0EE4B8AF0EE29
:104A80006B8AB0EE4A9AF0EE6A9AB0EE481AF0EEEF
:104A9000681AB0EE490AF0EE690AFFF791FD584630
:104AA000FCF738FBB0EE481AF0EE681AB0EE480A90
:104AB000F0EE680AFFF784FD5046FCF72BFBB0EEE2
:104AC000491AF0EE691AB0EE480AF0EE680AFFF7EC
:104AD00077FD4FF4AF70FCF71DFBA570BDEC088BA4
:104AE000BDE8F09FA0780028F8D0B0EE490AF0EEBB
:104AF000690AB0EE401AF0EE601AFFF761FD544605
:104B00005046FCF707FB9FED308BB0EE481AF0EEF5
:104B1000681AB0EE480AF0EE680AFFF751FD204629
:104B2000FCF7F8FA9FED2A0BB0EE401AF0EE601A8F
:104B3000FFF746FD2046FCF7EDFAB0EE481AF0EE1E
:104B4000681AB0EE480AF0EE680AFFF739FD4FF434
:104B5000C870FCF7DFFA9FED200BB0EE401AF0EEC4
:104B6000601AFFF72DFD6420FCF7D4FA9FED1C0BB3
:104B7000B0EE401AF0EE601AFFF722FDBDEC088B94
:104B8000C820BDE8F05FFCF7C5BA0000980000201F
:104B9000000000000000284000000000000028C0C5
:104BA000900000209200002000000000000010C0D3
:104BB000080000201C0000200000000000002EC0A3
:104BC0000000000000002E4000000000000039C07E
:104BD00000000000000034C000000000000014C00D
:104BE000000000000000000000061016000610166D
:104BF000000000000000000001020304060708098D
:104C0000000000000102030400000000000000009A
:104C10000000000000000000000000F8000000009C
:104C2000000000333000000000100C06100C0600DD
:104C3000000000000000000040C07840C078400044
:104C4000043F04043F040400007088FC08300000A6
:104C5000001820FF211E0000F008F000E0180000FE
:104C600000211C031E211E0000F0088870000000B7
:104C70001E2123241927211010160E000000000009
:104C80000000000000000000000000E01804020026
:104C9000000000071820400000020418E000000097
:104CA0000040201807000000404080F08040400095
:104CB0000202010F01020200000000F000000000EB
:104CC0000101011F010101000000000000000000BF
:104CD00080B0700000000000000000000000000034
:104CE00000010101010101010000000000000000BD
:104CF0000030300000000000000000008060180458
:104D0000006018060100000000E010080810E00034
:104D1000000F102020100F00001010F800000000FD
:104D20000020203F20200000007008080888700044
:104D300000302824222130000030088888483000C4
:104D40000018202020110E000000C02010F80000E4
:104D500000070424243F240000F80888880808007D
:104D60000019212020110E0000E010888818000092
:104D7000000F112020110E0000380808C838080064
:104D80000000003F000000000070880808887000E4
:104D9000001C222121221C0000E010080810E00065
:104DA0000000312222110F00000000C0C0000000EE
:104DB0000000003030000000000000800000000013
:104DC000000080600000000000008040201008000B
:104DD00000010204081020004040404040404000D4
:104DE00004040404040404000008102040800000AF
:104DF0000020100804020100007048080808F000B4
:104E00000000003036010000C030C828E810E00083
:104E10000718272423140B000000C038E00000000E
:104E2000203C23020227382008F888888870000078
:104E3000203F202020110E00C0300808080838004C
:104E4000071820202010080008F808080810E000C3
:104E5000203F202020100F0008F88888E808100064
:104E6000203F20202320180008F88888E808100038
:104E7000203F200003000000C03008080838000070
:104E800007182020221E020008F808000008F80871
:104E9000203F210101213F20000808F808080000F8
:104EA0000020203F2020000000000808F80808002B
:104EB000C08080807F00000008F888C028180800A3
:104EC000203F20012638200008F8080000000000DC
:104ED000203F20202020300008F8F800F8F80800D3
:104EE000203F003F003F200008F830C00008F808CD
:104EF000203F200007183F00E01008080810E000DD
:104F00000F10202020100F0008F808080808F000F3
:104F1000203F210101010000E01008080810E00016
:104F20000F18242438504F0008F8888888887000AB
:104F3000203F2000030C302000708808080838004B
:104F40000038202121221C00180808F80808180041
:104F50000000203F2000000008F808000008F808C2
:104F6000001F202020201F000878880000C8380873
:104F7000000007380E010000F80800F80008F800EB
:104F8000033C0700073C0300081868808068180885
:104F900020302C03032C30200838C800C838080003
:104FA0000000203F2000000010080808C838080052
:104FB0002038262120201800000000FE02020200F6
:104FC0000000007F40404000000C30C000000000A6
:104FD000000000010638C00000020202FE000000CE
:104FE000004040407F000000000004020202040074
:104FF00000000000000000000000000000000000B1
:105000008080808080808080000202040000000098
:105010000000000000000000000080808080000090
:105020000019242222223F2008F80080800000007E
:10503000003F112020110E00000000808080000041
:10504000000E112020201100000000808088F80050
:10505000000E112020103F20000080808080000082
:10506000001F222222221300008080F088888818E6
:105070000020203F202000000000808080808000F1
:10508000006B94949493600008F800808080000086
:10509000203F210000203F20008098980000000061
:1050A0000020203F20200000000000809898000091
:1050B00000C08080807F000008F8000080808000B1
:1050C000203F24022D302000000808F800000000D6
:1050D0000020203F20200000808080808080800091
:1050E000203F20003F20003F808000808080000023
:1050F000203F210000203F200000808080800000B1
:10510000001F202020201F008080008080000000E1
:1051100080FFA12020110E00000000808080800010
:10512000000E112020A0FF80808080008080800001
:1051300020203F212000010000008080808080002E
:105140000033242424241900008080E080800000A3
:105150000000001F202000008080000000808000F0
:10516000001F202020103F20808080000080808051
:1051700000010E30080601008080008000808080E1
:105180000F300C030C300F00008080008080800006
:105190000020312E0E312000808080000080808031
:1051A00080818E70180601000080808080808000E1
:1051B0000021302C2221300000000000807C0202FF
:1051C00000000000003F404000000000FF00000021
:1051D00000000000FF0000000002027C80000000D0
:1051E0000040403F000000000006010102020404EC
:1051F000000000000000000018520008000000201D
:10520000A0000000DA400008B8520008A00000200A
:10521000880A0000EA4000080000010000000000C9
:10522000000000000000000000000000000000007E
:10523000000000000000000000000000000000006E
:10524000000000000000000000000000000000005E
:10525000000000000000000000000000000000004E
:10526000000000000000000000010000000000003D
:10527000000000000000000000000000000000002E
:10528000000000000100000010000000000000000D
:105290000024F40019960000000000000000000047
:1052A00000000000000000000000000000000000FE
:0852B0000000000000000000F6
:040000050800018965
:00000001FF
